:020000040800F2
:1000000000500020310A0008AD090008B3090008BB
:10001000B9090008BF090008C50900080000000070
:10002000000000000000000000000000CB090008F4
:10003000D709000800000000E3090008EF090008E4
:10004000790A0008790A0008790A0008790A000884
:10005000790A0008790A0008790A0008790A000874
:10006000790A0008790A0008790A0008790A000864
:10007000790A0008790A0008790A0008790A000854
:10008000790A0008790A0008FD090008790A0008C1
:10009000790A0008790A0008790A0008790A000834
:1000A000790A0008790A0008790A0008790A000824
:1000B000790A0008790A0008790A0008790A000814
:1000C000790A0008790A0008790A0008790A000804
:1000D000790A0008790A0008790A0008110A00085C
:1000E000790A0008790A0008790A0008000000006F
:1000F0000000000000000000000000000000000000
:0C01000000000000000000005FF808F1A3
:10010C0010B5054C237833B9044B13B10448AFF345
:10011C0000800123237010BD0C00002000000000A3
:10012C00043A000808B5034B1BB103490348AFF36D
:10013C00008008BD0000000010000020043A0008F8
:10014C0080B584B000AF00F093FC00F089F800F0AB
:10015C007DFA00F0D5F800F021F900F0D7F900F0A5
:10016C004BFA9623FB609623BB6005237B60012230
:10017C003749384802F0D5FE0021374802F0B4F870
:10018C000421354802F0B0F80821334802F0ACF8ED
:10019C000021324802F0A8F801222D492D4802F026
:1001AC00C0FE2B4B1B78312B0BD1FA687B68D31A12
:1001BC00FB60FB68312B01DC3223FB60642000F018
:1001CC00B9FC234B1B78322B0BD1FA687B68134498
:1001DC00FB60FB68FA2B01DDFA23FB60642000F066
:1001EC00A9FC1B4B1B78332B0BD1BA687B68D31A39
:1001FC00BB60BB68312B01DC3223BB60642000F098
:10020C0099FC134B1B78342B0BD1BA687B681344C5
:10021C00BB60BB68FA2B01DDFA23BB60642000F0E5
:10022C0089FC0D4B1B68FA685A630B4B1B68FA6808
:10023C009A63094B1B68BA68DA63084B1B68BA6887
:10024C005A6301220249034802F06BFE94E700BF97
:10025C0030010020E800002058000020A000002001
:10026C0080B594B000AF07F128032822002118466E
:10027C0003F0BAFB07F1140300221A605A609A606B
:10028C00DA601A613B1D00221A605A609A60DA60CB
:10029C000223BB620123BB631023FB6300237B643B
:1002AC0007F12803184601F0B1FA0346002B01D0E0
:1002BC0000F024FA0F237B610023BB610023FB6158
:1002CC0000233B6200237B6207F1140300211846D4
:1002DC0001F01EFD0346002B01D000F00FFA0223A3
:1002EC007B600023FB603B1D184601F09FFE03461C
:1002FC00002B01D000F002FA00BF5037BD4680BD84
:10030C0080B584B000AF3B1D00221A605A609A6021
:10031C00204B214A1A601F4B4FF480729A601D4B80
:10032C0001221A731B4B00221A751A4B4FF46022D0
:10033C00DA61184B00225A60164B02221A611548DA
:10034C0000F01CFC0346002B01D000F0D7F9012370
:10035C007B600123BB600023FB603B1D19460D48ED
:10036C0000F0B6FD0346002B01D000F0C7F90223C4
:10037C007B600223BB603B1D1946064800F0A8FDBC
:10038C000346002B01D000F0B9F900BF1037BD4671
:10039C0080BD00BF280000200024014080B596B02D
:1003AC0000AF07F1480300221A605A609A60DA60C5
:1003BC0007F1400300221A605A6007F1240300225F
:1003CC001A605A609A60DA601A615A619A613B1D30
:1003DC0020220021184603F007FB4A4B4A4A1A60B8
:1003EC00484B4F225A60474B00229A60454B40F2D3
:1003FC00CF72DA60434B00221A61424B00225A61E1
:10040C00404B80229A613F4801F0C6FE0346002B08
:10041C0001D000F073F94FF48053BB6407F148032B
:10042C001946384802F012F90346002B01D000F0AF
:10043C0065F9344801F0FFFE0346002B01D000F0B3
:10044C005DF900233B6400237B6407F140031946EC
:10045C002C4802F067FC0346002B01D000F04EF94B
:10046C0060237B620023BB620023FB6200233B639F
:10047C0000237B630023BB630023FB6307F124038E
:10048C00002219461F4802F01FF80346002B01D02A
:10049C0000F034F907F1240304221946194802F03C
:1004AC0013F80346002B01D000F028F907F12403C0
:1004BC0008221946134802F007F80346002B01D016
:1004CC0000F01CF900237B600023BB600023FB6061
:1004DC0000233B6100237B614FF40053BB6100237D
:1004EC003B623B1D1946074802F07AFC0346002B81
:1004FC0001D000F003F9034800F0ACF900BF583705
:10050C00BD4680BD58000020002C014080B58EB047
:10051C0000AF07F1280300221A605A609A60DA6073
:10052C0007F1200300221A605A603B1D00221A605A
:10053C005A609A60DA601A615A619A612D4B4FF0D9
:10054C0080421A602B4B4F225A602A4B00229A6031
:10055C00284B40F2CF72DA60264B00221A61254BF1
:10056C0080229A61234801F017FE0346002B01D02C
:10057C0000F0C4F84FF48053BB6207F1280319460E
:10058C001C4802F063F80346002B01D000F0B6F8CB
:10059C00184801F050FE0346002B01D000F0AEF8D5
:1005AC0000233B6200237B6207F1200319461148AC
:1005BC0002F0B8FB0346002B01D000F09FF860233B
:1005CC007B600023BB600023FB6000237B613B1D31
:1005DC0000221946074801F077FF0346002B01D093
:1005EC0000F08CF8034800F035F900BF3837BD46F1
:1005FC0080BD00BFA000002080B500AF114B124A97
:10060C001A60104B4FF416525A600E4B00229A602F
:10061C000C4B0022DA600B4B00221A61094B0C22A6
:10062C005A61084B00229A61064B0022DA61054898
:10063C0002F027FC0346002B01D000F05FF800BF4E
:10064C0080BD00BFE80000200048004080B588B0A5
:10065C0000AF07F1100300221A605A609A60DA604A
:10066C00244B9B69234A43F010039361214B9B69F4
:10067C0003F01003FB60FB681E4B9B691D4A43F0A3
:10068C00200393611B4B9B6903F02003BB60BB6889
:10069C00184B9B69174A43F004039361154B9B69F4
:1006AC0003F004037B607B68124B9B69114A43F097
:1006BC00080393610F4B9B6903F008033B603B6895
:1006CC0000224FF400510C4801F088F84FF400530D
:1006DC003B6101237B610023BB610223FB6107F1BA
:1006EC0010031946044800F0F5FE00BF2037BD4644
:1006FC0080BD00BF001002400010014080B400AF6C
:10070C0072B600BFFEE7000080B485B000AF154B99
:10071C009B69144A43F001039361124B9B6903F0EC
:10072C000103BB60BB680F4BDB690E4A43F080537F
:10073C00D3610C4BDB6903F080537B607B680A4B05
:10074C005B68FB60FB6823F0E063FB60FB6843F0D5
:10075C000073FB60044AFB68536000BF1437BD464E
:10076C0080BC7047001002400000014080B588B08A
:10077C0000AF786007F1100300221A605A609A608B
:10078C00DA607B681B68184A934229D1174B9B6926
:10079C00164A43F400739361144B9B6903F4007382
:1007AC00FB60FB68114B9B69104A43F00403936197
:1007BC000E4B9B6903F00403BB60BB6806233B61D3
:1007CC0003237B6107F110031946094800F082FEF0
:1007DC0000220021122000F094FD122000F0ADFD4B
:1007EC0000BF2037BD4680BD0024014000100240F0
:1007FC000008014080B485B000AF78607B681B684E
:10080C00124A93420CD1124B9B69114A43F4006378
:10081C0093610F4B9B6903F40063FB60FB6810E072
:10082C007B681B68B3F1804F0BD1094BDB69084A1D
:10083C0043F00103D361064BDB6903F00103BB609A
:10084C00BB6800BF1437BD4680BC7047002C01400C
:10085C000010024080B588B000AF786007F110033B
:10086C0000221A605A609A60DA607B681B681F4A23
:10087C00934219D11E4B9B691D4A43F004039361AB
:10088C001B4B9B6903F00403FB60FB684FF4E063B4
:10089C003B6102237B610223FB6107F110031946C4
:1008AC00144800F017FE1CE07B681B68B3F1804F06
:1008BC0017D10F4B9B690E4A43F0040393610C4B09
:1008CC009B6903F00403BB60BB6801233B610223FB
:1008DC007B610223FB6107F110031946054800F008
:1008EC00F9FD00BF2037BD4680BD00BF002C014084
:1008FC00001002400008014080B588B000AF78605D
:10090C0007F1100300221A605A609A60DA607B6863
:10091C001B68204A934239D11F4BDB691E4A43F4B2
:10092C008023D3611C4BDB6903F48023FB60FB68E1
:10093C00194B9B69184A43F008039361164B9B694A
:10094C0003F00803BB60BB684FF480633B61022378
:10095C007B610323FB6107F1100319460F4800F07C
:10096C00B9FD4FF400633B6100237B610023BB6145
:10097C0007F110031946094800F0ACFD00220021D4
:10098C00272000F0BEFC272000F0D7FC00BF20374A
:10099C00BD4680BD0048004000100240000C0140E4
:1009AC0080B400AFFEE780B400AFFEE780B400AFC8
:1009BC00FEE780B400AFFEE780B400AFFEE780B482
:1009CC0000AF00BFBD4680BC704780B400AF00BF15
:1009DC00BD4680BC704780B400AF00BFBD4680BC34
:1009EC00704780B500AF00F089F800BF80BD0000F3
:1009FC0080B500AF024800F099F900BF80BD00BF80
:100A0C002800002080B500AF024802F0AFFA00BF0A
:100A1C0080BD00BFE800002080B400AF00BFBD4621
:100A2C0080BC7047FFF7F8FF0B480C490C4A0023B9
:100A3C0002E0D458C4500433C4188C42F9D3094A88
:100A4C00094C002301E013600432A242FBD302F0F4
:100A5C00A7FFFFF775FB7047000000200C0000207B
:100A6C00503A00080C00002038010020FEE700007E
:100A7C0080B500AF084B1B68074A43F010031360A6
:100A8C00032000F033FC0F2000F008F8FFF73CFEC9
:100A9C000023184680BD00BF0020024080B582B004
:100AAC0000AF7860124B1A68124B1B7819464FF442
:100ABC007A73B3FBF1F3B2FBF3F3184600F04BFC83
:100ACC000346002B01D001230EE07B680F2B0AD8C4
:100ADC00002279684FF0FF3000F013FC064A7B6867
:100AEC001360002300E0012318460837BD4680BD83
:100AFC0000000020080000200400002080B400AF9B
:100B0C00054B1B781A46054B1B681344034A1360AC
:100B1C0000BFBD4680BC7047080000203401002097
:100B2C0080B400AF024B1B681846BD4680BC7047B2
:100B3C003401002080B584B000AF7860FFF7F0FF7F
:100B4C00B8607B68FB60FB68B3F1FF3F05D00A4BD4
:100B5C001B781A46FB681344FB6000BFFFF7E0FFED
:100B6C000246BB68D31AFA689A42F7D800BF00BF96
:100B7C001037BD4680BD00BF0800002080B586B090
:100B8C0000AF78600023FB7500233B610023BB6042
:100B9C000023FB607B68002B01D10123BEE07B6846
:100BAC009B68002B7B689B6A002B09D17B68002219
:100BBC00DA627B68002283F824207868FFF7D6FD80
:100BCC00786800F07DFA0346FB757B689B6A03F03E
:100BDC001003002B40F09980FB7D002B40F095809A
:100BEC007B689B6A23F4885323F0020343F00202D0
:100BFC007B689A627B685A687B68DB691A437B68FE
:100C0C001B7B5B001343BA681343BB607B689B6818
:100C1C00B3F5807F03D07B689B68012B02D14FF426
:100C2C00807300E000233A6913433B617B681B7DB2
:100C3C00012B19D17B681B7B002B09D17B689B692D
:100C4C00013B5A033B69134343F400633B610BE0E4
:100C5C007B689B6A43F020027B689A627B68DB6A44
:100C6C0043F001027B68DA627B681B685B6823F4E3
:100C7C0069417B681B683A690A435A607B681B6848
:100C8C009A68284B13407A681268B9680B439360D2
:100C9C007B689B68B3F5807F03D07B689B68012BD6
:100CAC0004D17B681B69013B1B05FB607B681B68DF
:100CBC00DB6A23F470017B681B68FA680A43DA620A
:100CCC007B681B689A68184B1340BA689A420BD120
:100CDC007B680022DA627B689B6A23F0030343F093
:100CEC0001027B689A6218E07B689B6A23F012030E
:100CFC0043F010027B689A627B68DB6A43F0010266
:100D0C007B68DA620123FB7507E07B689B6A43F022
:100D1C0010027B689A620123FB75FB7D184618371D
:100D2C00BD4680BDFDF7E1FFFE0E1FFF80B584B010
:100D3C0000AF78607B681B681B68FB607B681B6876
:100D4C005B68BB60BB6803F02003002B3ED0FB68E4
:100D5C0003F00203002B39D07B689B6A03F010036D
:100D6C00002B05D17B689B6A43F400727B689A6206
:100D7C007B681B689B6803F46023B3F5602F1DD15F
:100D8C007B681B7B002B19D17B681B685A687B68BE
:100D9C001B6822F020025A607B689B6A23F48072E5
:100DAC007B689A627B689B6A03F48053002B05D1A5
:100DBC007B689B6A43F001027B689A62786800F05A
:100DCC0074F87B681B686FF012021A60BB6803F042
:100DDC008003002B4DD0FB6803F00403002B48D09C
:100DEC007B689B6A03F01003002B05D17B689B6A20
:100DFC0043F400527B689A627B681B689B6803F41F
:100E0C00E043B3F5E04F12D07B681B685B6803F4DA
:100E1C008063002B25D17B681B689B6803F46023DF
:100E2C00B3F5602F1DD17B681B7B002B19D17B6820
:100E3C001B685A687B681B6822F080025A607B68CA
:100E4C009B6A23F480527B689A627B689B6A03F4EA
:100E5C008073002B05D17B689B6A43F001027B6891
:100E6C009A62786800F06DF97B681B686FF00C0271
:100E7C001A60BB6803F04003002B12D0FB6803F030
:100E8C000103002B0DD07B689B6A43F480327B6896
:100E9C009A62786800F012F87B681B686FF00102A8
:100EAC001A6000BF1037BD4680BD80B483B000AF60
:100EBC00786000BF0C37BD4680BC704780B483B0EF
:100ECC0000AF786000BF0C37BD4680BC7047000097
:100EDC0080B485B000AF786039600023FB730023C9
:100EEC00BB607B6893F82430012B01D10223DCE03A
:100EFC007B68012283F824203B685B68062B1CD896
:100F0C007B681B68596B3B685A6813469B001344FB
:100F1C00053B1F2202FA03F3DB4319403B681868B8
:100F2C003B685A6813469B001344053B00FA03F2D6
:100F3C007B681B680A435A633CE03B685B680C2B7C
:100F4C001CD87B681B68196B3B685A6813469B005E
:100F5C001344233B1F2202FA03F3DB4319403B6883
:100F6C0018683B685A6813469B001344233B00FAED
:100F7C0003F27B681B680A431A631BE07B681B68DF
:100F8C00D96A3B685A6813469B001344413B1F22A5
:100F9C0002FA03F3DB4319403B6818683B685A6854
:100FAC0013469B001344413B00FA03F27B681B6819
:100FBC000A43DA623B681B68092B1CD97B681B68E7
:100FCC00D9683B681A6813465B0013441E3B072222
:100FDC0002FA03F3DB4319403B6898683B681A68D4
:100FEC0013465B0013441E3B00FA03F27B681B683C
:100FFC000A43DA6019E07B681B6819693B681A6858
:10100C0013465B001344072202FA03F3DB43194037
:10101C003B6898683B681A6813465B00134400FAF7
:10102C0003F27B681B680A431A613B681B68102B30
:10103C0003D03B681B68112B32D17B681B681D4A9F
:10104C00934225D17B681B689B6803F40003002B3B
:10105C0026D17B681B689A687B681B6842F4000287
:10106C009A603B681B68102B1AD1134B1B68134AF0
:10107C00A2FB03239A0C13469B0013445B00BB603A
:10108C0002E0BB68013BBB60BB68002BF9D107E0F9
:10109C007B689B6A43F020027B689A620123FB7396
:1010AC007B68002283F82420FB7B18461437BD464E
:1010BC0080BC7047002401400000002083DE1B43ED
:1010CC0080B584B000AF78600023FB607B681B6840
:1010DC009B6803F00103012B2ED17B681B689A6877
:1010EC007B681B6822F001029A60FFF719FDF8601B
:1010FC001BE0FFF715FD0246FB68D31A022B14D92F
:10110C007B681B689B6803F00103012B0DD17B6886
:10111C009B6A43F010027B689A627B68DB6A43F03F
:10112C0001027B68DA62012307E07B681B689B681D
:10113C0003F00103012BDCD0002318461037BD4609
:10114C0080BD80B483B000AF786000BF0C37BD4663
:10115C0080BC704780B485B000AF78607B6803F0CA
:10116C000703FB600C4BDB68BB60BA684FF6FF03F0
:10117C001340BB60FB681A02BB68134343F0BF63A8
:10118C0043F40033BB60044ABB68D36000BF143720
:10119C00BD4680BC704700BF00ED00E080B400AFDE
:1011AC00044BDB681B0A03F007031846BD4680BCE2
:1011BC00704700BF00ED00E080B483B000AF034681
:1011CC00FB7197F90730002B0BDBFB7903F01F0247
:1011DC00064997F907305B09012000FA02F241F841
:1011EC00232000BF0C37BD4680BC704700E100E0F7
:1011FC0080B483B000AF03463960FB7197F90730B8
:10120C00002B0ADB3B68DAB20C4997F90730120164
:10121C00D2B20B4483F800230AE03B68DAB20849E7
:10122C00FB7903F00F03043B1201D2B20B441A7684
:10123C0000BF0C37BD4680BC704700BF00E100E02A
:10124C0000ED00E080B489B000AFF860B9607A605E
:10125C00FB6803F00703FB61FB69C3F10703042B75
:10126C0028BF0423BB61FB690433062B02D9FB693D
:10127C00033B00E000237B614FF0FF32BB6902FAB5
:10128C0003F3DA43BB681A407B699A404FF0FF3195
:10129C007B6901FA03F3D9437B680B40134318466F
:1012AC002437BD4680BC704780B582B000AF7860F3
:1012BC007B68013BB3F1807F01D301230FE00A4A25
:1012CC007B68013B53600F214FF0FF30FFF790FF1D
:1012DC00054B00229A60044B07221A600023184623
:1012EC000837BD4680BD00BF10E000E080B582B07D
:1012FC0000AF78607868FFF72DFF00BF0837BD4658
:10130C0080BD80B586B000AF0346B9607A60FB73D0
:10131C0000237B61FFF742FF78617A68B9687869CE
:10132C00FFF790FF024697F90F3011461846FFF76A
:10133C005FFF00BF1837BD4680BD80B582B000AFDF
:10134C000346FB7197F907301846FFF735FF00BFCE
:10135C000837BD4680BD80B582B000AF7860786834
:10136C00FFF7A2FF034618460837BD4680BD80B480
:10137C0085B000AF78600023FB737B6893F8213055
:10138C00DBB2022B08D07B6804229A637B680022B4
:10139C0083F82020012320E07B681B681A687B6897
:1013AC001B6822F00E021A607B681B681A687B6847
:1013BC001B6822F001021A607B681A6C7B68DB6B7D
:1013CC00012101FA02F25A607B68012283F8212084
:1013DC007B68002283F82020FB7B18461437BD461F
:1013EC0080BC704780B584B000AF78600023FB737D
:1013FC007B6893F82130DBB2022B05D07B6804228A
:10140C009A630123FB7351E07B681B681A687B6845
:10141C001B6822F00E021A607B681B681A687B68D6
:10142C001B6822F001021A607B681B68224A9342F7
:10143C0029D07B681B68214A934222D07B681B68A9
:10144C001F4A93421AD07B681B681E4A934212D0E3
:10145C007B681B681C4A93420AD07B681B681B4A3A
:10146C00934202D14FF480130EE04FF080730BE0E7
:10147C004FF4803308E04FF4805305E04FF4807351
:10148C0002E0102300E00123114A53607B68012223
:10149C0083F821207B68002283F820207B685B6B1B
:1014AC00002B03D07B685B6B78689847FB7B1846F6
:1014BC001037BD4680BD00BF080002401C00024032
:1014CC003000024044000240580002406C000240D0
:1014DC000000024080B48BB000AF7860396000230C
:1014EC007B6200233B6269E101227B6A02FA03F30F
:1014FC00FB613B681B68FA691340BB61BA69FB6905
:10150C009A4240F058813B685B689A4A93425ED09D
:10151C00984A934275D8984A934258D0964A934227
:10152C006FD8964A934252D0944A934269D8944ABF
:10153C0093424CD0924A934263D8924A934246D0FB
:10154C00904A93425DD8122B2AD8122B59D801A25B
:10155C0052F823F0DB150008B5150008C715000874
:10156C00091600080F1600080F1600080F160008C1
:10157C000F1600080F1600080F1600080F160008AB
:10158C000F1600080F1600080F1600080F1600089B
:10159C000F1600080F160008BD150008D11500081D
:1015AC00794A934213D02CE03B68DB683B6229E01C
:1015BC003B68DB6804333B6224E03B68DB68083340
:1015CC003B621FE03B68DB680C333B621AE03B6814
:1015DC009B68002B02D104233B6213E03B689B68A1
:1015EC00012B05D108233B627B68FA691A6109E07B
:1015FC0008233B627B68FA695A6103E000233B6273
:10160C0000E000BFBB69FF2B01D87B6801E07B6861
:10161C0004337B61BB69FF2B02D87B6A9B0002E021
:10162C007B6A083B9B003B617B691A680F213B6915
:10163C0001FA03F3DB431A40396A3B6901FA03F3FD
:10164C001A437B691A603B685B6803F08053002B7C
:10165C0000F0B1804D4B9B694C4A43F00103936100
:10166C004A4B9B6903F00103BB60BB68484A7B6A29
:10167C009B08023352F82330FB607B6A03F00303B0
:10168C009B000F2202FA03F3DB43FA681340FB6062
:10169C007B68404A934213D07B683F4A93420DD0FB
:1016AC007B683E4A934207D07B683D4A934201D106
:1016BC00032306E0042304E0022302E0012300E0FC
:1016CC0000237A6A02F0030292009340FA681343F3
:1016DC00FB602F497B6A9B080233FA6841F8232090
:1016EC003B685B6803F48013002B06D02D4B9A6883
:1016FC002C49BB6913438B6006E02A4B9A68BB6983
:10170C00DB43284913408B603B685B6803F4001390
:10171C00002B06D0234BDA682249BB691343CB60FC
:10172C0006E0204BDA68BB69DB431E491340CB60F3
:10173C003B685B6803F40033002B06D0194B5A68E6
:10174C001849BB6913434B6006E0164B5A68BB69DA
:10175C00DB43144913404B603B685B6803F48033F4
:10176C00002B21D00F4B1A680E49BB6913430B6039
:10177C0021E000BF000032100000311000002210E8
:10178C000000211000001210000011100010024087
:10179C000000014000080140000C01400010014015
:1017AC0000140140000401400B4B1A68BB69DB4379
:1017BC00094913400B607B6A01337B623B681A68F2
:1017CC007B6A22FA03F3002B7FF48EAE00BF00BFBE
:1017DC002C37BD4680BC70470004014080B483B0F8
:1017EC0000AF78600B467B8013467B707B78002BB8
:1017FC0003D07A887B681A6103E07B881A047B68C3
:10180C001A6100BF0C37BD4680BC704780B586B0EE
:10181C0000AF78607B68002B01D1012372E27B68FA
:10182C001B6803F00103002B00F08780924B5B6870
:10183C0003F00C03042B0CD08F4B5B6803F00C03F0
:10184C00082B12D18C4B5B6803F48033B3F5803FCB
:10185C000BD1894B1B6803F40033002B6CD07B68D5
:10186C005B68002B68D101234CE27B685B68B3F5A5
:10187C00803F06D1804B1B687F4A43F48033136052
:10188C002EE07B685B68002B0CD17B4B1B687A4A83
:10189C0023F480331360784B1B68774A23F480233E
:1018AC0013601DE07B685B68B3F5A02F0CD1724B05
:1018BC001B68714A43F4802313606F4B1B686E4A9C
:1018CC0043F4803313600BE06B4B1B686A4A23F4C0
:1018DC0080331360684B1B68674A23F480231360C2
:1018EC007B685B68002B13D0FFF71AF9386108E0AE
:1018FC00FFF716F902463B69D31A642B01D903236F
:10190C0000E25D4B1B6803F40033002BF0D014E0B5
:10191C00FFF706F9386108E0FFF702F902463B6968
:10192C00D31A642B01D90323ECE1534B1B6803F44A
:10193C000033002BF0D100E000BF7B681B6803F084
:10194C000203002B63D04C4B5B6803F00C03002BA1
:10195C000BD0494B5B6803F00C03082B1CD1464B96
:10196C005B6803F48033002B16D1434B1B6803F0E8
:10197C000203002B05D07B681B69012B01D00123CE
:10198C00C0E13D4B1B6823F0F8027B685B69DB0010
:10199C00394913430B603AE07B681B69002B20D05C
:1019AC00364B01221A60FFF7BBF8386108E0FFF7ED
:1019BC00B7F802463B69D31A022B01D90323A1E1E4
:1019CC002D4B1B6803F00203002BF0D02A4B1B6835
:1019DC0023F0F8027B685B69DB00274913430B603B
:1019EC0015E0264B00221A60FFF79AF8386108E0E0
:1019FC00FFF796F802463B69D31A022B01D9032351
:101A0C0080E11D4B1B6803F00203002BF0D17B68B7
:101A1C001B6803F00803002B3AD07B689B69002BF2
:101A2C0019D0174B01221A60FFF77AF8386108E0D9
:101A3C00FFF776F802463B69D31A022B01D9032330
:101A4C0060E10D4B5B6A03F00203002BF0D0012028
:101A5C0000F0CEFA1CE00A4B00221A60FFF760F887
:101A6C0038610FE0FFF75CF802463B69D31A022B92
:101A7C0008D9032346E100BF001002400000424297
:101A8C0080044242924B5B6A03F00203002BE9D1C3
:101A9C007B681B6803F00403002B00F0A680002376
:101AAC00FB758B4BDB6903F08053002B0DD1884BFE
:101ABC00DB69874A43F08053D361854BDB6903F0C4
:101ACC008053BB60BB680123FB75824B1B6803F41E
:101ADC008073002B18D17F4B1B687E4A43F48073B4
:101AEC001360FFF71DF8386108E0FFF719F802469C
:101AFC003B69D31A642B01D9032303E1754B1B6893
:101B0C0003F48073002BF0D07B68DB68012B06D1CB
:101B1C006F4B1B6A6E4A43F0010313622DE07B6826
:101B2C00DB68002B0CD16A4B1B6A694A23F001035A
:101B3C001362674B1B6A664A23F0040313621CE0B2
:101B4C007B68DB68052B0CD1614B1B6A604A43F048
:101B5C00040313625E4B1B6A5D4A43F0010313627C
:101B6C000BE05B4B1B6A5A4A23F001031362584B80
:101B7C001B6A574A23F0040313627B68DB68002B53
:101B8C0015D0FEF7CDFF38610AE0FEF7C9FF02461B
:101B9C003B69D31A41F28832934201D90323B1E055
:101BAC004B4B1B6A03F00203002BEED014E0FEF744
:101BBC00B7FF38610AE0FEF7B3FF02463B69D31A60
:101BCC0041F28832934201D903239BE0404B1B6ABC
:101BDC0003F00203002BEED1FB7D012B05D13C4B16
:101BEC00DB693B4A23F08053D3617B68DB69002BB4
:101BFC0000F08780364B5B6803F00C03082B61D038
:101C0C007B68DB69022B46D1334B00221A60FEF74E
:101C1C0087FF386108E0FEF783FF02463B69D31A61
:101C2C00022B01D903236DE0294B1B6803F00073D1
:101C3C00002BF0D17B681B6AB3F5803F08D1244B95
:101C4C005B6823F400327B689B68214913434B602B
:101C5C001F4B5B6823F474127B68196A7B685B6AA0
:101C6C000B431B4913434B601B4B01221A60FEF7BD
:101C7C0057FF386108E0FEF753FF02463B69D31A61
:101C8C00022B01D903233DE0114B1B6803F00073B9
:101C9C00002BF0D035E0104B00221A60FEF740FF0D
:101CAC00386108E0FEF73CFF02463B69D31A022B71
:101CBC0001D9032326E0064B1B6803F00073002BAD
:101CCC00F0D11EE07B68DB69012B07D1012319E001
:101CDC000010024000700040600042420B4B5B68F9
:101CEC00FB60FB6803F480327B681B6A9A4206D166
:101CFC00FB6803F470127B685B6A9A4201D0012383
:101D0C0000E0002318461837BD4680BD0010024085
:101D1C0080B584B000AF786039607B68002B01D14E
:101D2C000123D0E06A4B1B6803F007033A689A4220
:101D3C0010D9674B1B6823F0070265493B681343B6
:101D4C000B60634B1B6803F007033A689A4201D09F
:101D5C000123B8E07B681B6803F00203002B20D042
:101D6C007B681B6803F00403002B05D0594B5B68A0
:101D7C00584A43F4E06353607B681B6803F0080324
:101D8C00002B05D0534B5B68524A43F460535360AD
:101D9C00504B5B6823F0F0027B689B684D49134302
:101DAC004B607B681B6803F00103002B40D07B6801
:101DBC005B68012B07D1474B1B6803F40033002BE6
:101DCC0015D101237FE07B685B68022B07D1414B67
:101DDC001B6803F00073002B09D1012373E03D4B0A
:101DEC001B6803F00203002B01D101236BE0394B7C
:101DFC005B6823F003027B685B68364913434B60D6
:101E0C00FEF78EFEF8600AE0FEF78AFE0246FB68DB
:101E1C00D31A41F28832934201D9032353E02D4B5C
:101E2C005B6803F00C027B685B689B009A42EBD109
:101E3C00274B1B6803F007033A689A4210D2244BD5
:101E4C001B6823F0070222493B6813430B60204BAD
:101E5C001B6803F007033A689A4201D0012332E071
:101E6C007B681B6803F00403002B08D0194B5B68DC
:101E7C0023F4E0627B68DB68164913434B607B6894
:101E8C001B6803F00803002B09D0124B5B6823F48A
:101E9C0060527B681B69DB000E4913434B6000F0FA
:101EAC0021F802460B4B5B681B0903F00F030A4930
:101EBC00CB5C22FA03F3094A1360094B1B681846E2
:101ECC00FEF7ECFD002318461037BD4680BD00BF61
:101EDC0000200240001002401C3A000800000020C4
:101EEC000400002080B487B000AF0023FB60002307
:101EFC00BB6000237B6100237B6000233B611E4B96
:101F0C005B68FB60FB6803F00C03042B02D0082B0E
:101F1C0003D027E0194B3B6127E0FB689B0C03F0D7
:101F2C000F03174AD35C7B60FB6803F48033002BF0
:101F3C0010D0114B5B685B0C03F00103114AD35CAE
:101F4C00BB607B680D4A03FB02F2BB68B2FBF3F388
:101F5C007B6104E07B680C4A02FB03F37B617B69C9
:101F6C003B6102E0054B3B6100BF3B6918461C37E7
:101F7C00BD4680BC704700BF0010024000127A00C2
:101F8C00343A0008443A000800093D0080B400AF20
:101F9C00024B1B681846BD4680BC704700000020F1
:101FAC0080B500AFFFF7F2FF0246054B5B681B0ADA
:101FBC0003F007030349CB5C22FA03F3184680BDF8
:101FCC00001002402C3A000880B500AFFFF7DEFF8E
:101FDC000246054B5B68DB0A03F007030349CB5C45
:101FEC0022FA03F3184680BD001002402C3A000878
:101FFC0080B485B000AF78600A4B1B680A4AA2FB1C
:10200C0003235B0A7A6802FB03F3FB6000BFFB68E7
:10201C005A1EFA60002BF9D100BF00BF1437BD4621
:10202C0080BC704700000020D34D621080B586B094
:10203C0000AF786000233B610023FB607B681B686A
:10204C0003F00103002B7DD00023FB754F4BDB69A4
:10205C0003F08053002B0DD14C4BDB694B4A43F002
:10206C008053D361494BDB6903F08053BB60BB6881
:10207C000123FB75464B1B6803F48073002B18D1AE
:10208C00434B1B68424A43F480731360FEF748FDD0
:10209C00386108E0FEF744FD02463B69D31A642B15
:1020AC0001D903236DE03A4B1B6803F48073002BBA
:1020BC00F0D0364B1B6A03F44073FB60FB68002BBB
:1020CC002ED07B685B6803F44073FA689A4227D081
:1020DC002E4B1B6A23F44073FB602E4B01221A60BB
:1020EC002C4B00221A60294AFB681362FB6803F030
:1020FC000103002B14D0FEF713FD38610AE0FEF744
:10210C000FFD02463B69D31A41F28832934201D942
:10211C00032336E01D4B1B6A03F00203002BEED0A9
:10212C001A4B1B6A23F440727B685B681749134394
:10213C000B62FB7D012B05D1144BDB69134A23F099
:10214C008053D3617B681B6803F00203002B08D01B
:10215C000E4B5B6823F440427B689B680B4913432E
:10216C004B607B681B6803F01003002B08D0074BF7
:10217C005B6823F480027B68DB68044913434B6083
:10218C00002318461837BD4680BD00BF0010024022
:10219C00007000404004424280B582B000AF7860CD
:1021AC007B68002B01D1012341E07B6893F83D3023
:1021BC00DBB2002B06D17B68002283F83C207868C8
:1021CC00FEF718FB7B68022283F83D207B681A68B7
:1021DC007B6804331946104600F000FB7B68012233
:1021EC0083F846207B68012283F83E207B6801221D
:1021FC0083F83F207B68012283F840207B68012212
:10220C0083F841207B68012283F842207B680122FD
:10221C0083F843207B68012283F844207B680122E9
:10222C0083F845207B68012283F83D200023184663
:10223C000837BD4680BD80B582B000AF78607B6842
:10224C00002B01D1012341E07B6893F83D30DBB2D8
:10225C00002B06D17B68002283F83C20786800F0C4
:10226C0039F87B68022283F83D207B681A687B680A
:10227C0004331946104600F0B1FA7B68012283F84A
:10228C0046207B68012283F83E207B68012283F87C
:10229C003F207B68012283F840207B68012283F871
:1022AC0041207B68012283F842207B68012283F85D
:1022BC0043207B68012283F844207B68012283F849
:1022CC0045207B68012283F83D20002318460837FF
:1022DC00BD4680BD80B483B000AF786000BF0C37C2
:1022EC00BD4680BC7047000080B584B000AF7860FC
:1022FC0039600023FB733B68002B09D17B6893F892
:10230C003E30DBB2012B14BF01230023DBB222E0F1
:10231C003B68042B09D17B6893F83F30DBB2012B6F
:10232C0014BF01230023DBB215E03B68082B09D155
:10233C007B6893F84030DBB2012B14BF01230023E0
:10234C00DBB208E07B6893F84130DBB2012B14BFA1
:10235C0001230023DBB2002B01D00123A9E03B6851
:10236C00002B04D17B68022283F83E2013E03B68EB
:10237C00042B04D17B68022283F83F200BE03B68DE
:10238C00082B04D17B68022283F8402003E07B6891
:10239C00022283F841203B680C2B41D801A252F851
:1023AC0023F000BFE52300082D2400082D2400088D
:1023BC002D240008F72300082D2400082D240008E4
:1023CC002D240008092400082D2400082D240008C1
:1023DC002D2400081B2400087B681B68DA687B68C6
:1023EC001B6842F00202DA601DE07B681B68DA6849
:1023FC007B681B6842F00402DA6014E07B681B689F
:10240C00DA687B681B6842F00802DA600BE07B68D4
:10241C001B68DA687B681B6842F01002DA6002E025
:10242C000123FB7300BFFB7B002B41D17B681B6836
:10243C0001223968184600F051FC7B681B681F4A62
:10244C00934207D17B681B685A6C7B681B6842F40B
:10245C0000425A647B681B68184A93420ED07B6812
:10246C001B68B3F1804F09D07B681B68144A9342F8
:10247C0004D07B681B68134A934211D17B681B689C
:10248C009B6803F00703BB60BB68062B10D07B680E
:10249C001B681A687B681B6842F001021A6007E02F
:1024AC007B681B681A687B681B6842F001021A6023
:1024BC00FB7B18461037BD4680BD00BF002C014089
:1024CC00000400400008004080B586B000AFF86002
:1024DC00B9607A600023FB75FB6893F83C30012BE4
:1024EC0001D10223AEE0FB68012283F83C207B681B
:1024FC000C2B00F29F8001A252F823F03D2500081E
:10250C004126000841260008412600087D250008C8
:10251C00412600084126000841260008BF25000876
:10252C00412600084126000841260008FF25000826
:10253C00FB681B68B968184600F0B2F9FB681B68A9
:10254C009A69FB681B6842F008029A61FB681B6879
:10255C009A69FB681B6822F004029A61FB681B688D
:10256C009969BB681A69FB681B680A439A6164E045
:10257C00FB681B68B968184600F0F8F9FB681B6823
:10258C009A69FB681B6842F400629A61FB681B68DD
:10259C009A69FB681B6822F480629A61FB681B686D
:1025AC009969BB681B691A02FB681B680A439A612C
:1025BC0043E0FB681B68B968184600F041FAFB68F9
:1025CC001B68DA69FB681B6842F00802DA61FB6879
:1025DC001B68DA69FB681B6822F00402DA61FB688D
:1025EC001B68D969BB681A69FB681B680A43DA6106
:1025FC0023E0FB681B68B968184600F08BFAFB688F
:10260C001B68DA69FB681B6842F40062DA61FB68DC
:10261C001B68DA69FB681B6822F48062DA61FB686C
:10262C001B68D969BB681B691A02FB681B680A43E3
:10263C00DA6102E00123FB7500BFFB68002283F81E
:10264C003C20FB7D18461837BD4680BD80B584B054
:10265C0000AF786039600023FB737B6893F83C30E3
:10266C00012B01D10223B4E07B68012283F83C20CA
:10267C007B68022283F83D207B681B689B68BB60EB
:10268C00BB6823F07703BB60BB6823F47F43BB605C
:10269C007B681B68BA689A603B681B68B3F5005F7F
:1026AC003ED0B3F5005F00F28780B3F5805F00F099
:1026BC008680B3F5805F7FD8702B1AD0702B7BD8B7
:1026CC00602B50D0602B77D8502B3CD0502B73D82C
:1026DC00402B58D0402B6FD8302B64D0302B6BD87C
:1026EC00202B60D0202B67D8002B5CD0102B5AD01D
:1026FC0062E07B6818683B6899683B685A683B687D
:10270C00DB6800F0CCFA7B681B689B68BB60BB681D
:10271C0043F07703BB607B681B68BA689A604FE034
:10272C007B6818683B6899683B685A683B68DB684B
:10273C0000F0B5FA7B681B689A687B681B6842F4EA
:10274C0080429A603CE07B6818683B6859683B683B
:10275C00DB681A4600F02CFA7B681B68502118467F
:10276C0000F083FA2CE07B6818683B6859683B687A
:10277C00DB681A4600F04AFA7B681B686021184631
:10278C0000F073FA1CE07B6818683B6859683B687A
:10279C00DB681A4600F00CFA7B681B68402118466F
:1027AC0000F063FA0CE07B681A683B681B681946FA
:1027BC00104600F05AFA03E00123FB7300E000BF5F
:1027CC007B68012283F83D207B68002283F83C2043
:1027DC00FB7B18461037BD4680BD000080B485B029
:1027EC0000AF786039607B681B68FB607B68294AA6
:1027FC0093420BD07B68B3F1804F07D07B68264A9D
:10280C00934203D07B68254A934208D1FB6823F09E
:10281C007003FB603B685B68FA681343FB607B6882
:10282C001C4A93420BD07B68B3F1804F07D07B6876
:10283C00194A934203D07B68184A934208D1FB682B
:10284C0023F44073FB603B68DB68FA681343FB605E
:10285C00FB6823F080023B685B691343FB607B6879
:10286C00FA681A603B689A687B68DA623B681A6897
:10287C007B689A627B68074A934203D13B681A696A
:10288C007B681A637B6801225A6100BF1437BD460E
:10289C0080BC7047002C0140000400400008004040
:1028AC0080B487B000AF786039607B681B6A7B614D
:1028BC007B681B6A23F001027B681A627B685B6889
:1028CC003B617B689B69FB60FB6823F07003FB60DA
:1028DC00FB6823F00303FB603B681B68FA68134337
:1028EC00FB607B6923F002037B613B689B687A6920
:1028FC0013437B617B681C4A93420CD17B6923F0A8
:10290C0008037B613B68DB687A6913437B617B69F5
:10291C0023F004037B617B68134A934211D13B691A
:10292C0023F480733B613B6923F400733B613B6888
:10293C005B693A6913433B613B689B693A69134392
:10294C003B617B683A695A607B68FA689A613B68BC
:10295C005A687B685A637B687A691A6200BF1C37B5
:10296C00BD4680BC704700BF002C014080B487B0CE
:10297C0000AF786039607B681B6A7B617B681B6A7F
:10298C0023F010027B681A627B685B683B617B6892
:10299C009B69FB60FB6823F4E043FB60FB6823F45A
:1029AC004073FB603B681B681B02FA681343FB60B7
:1029BC007B6923F020037B613B689B681B017A6970
:1029CC0013437B617B681D4A93420DD17B6923F0D5
:1029DC0080037B613B68DB681B017A6913437B6175
:1029EC007B6923F040037B617B68144A934213D1CB
:1029FC003B6923F480633B613B6923F400633B61D7
:102A0C003B685B699B003A6913433B613B689B697C
:102A1C009B003A6913433B617B683A695A607B6857
:102A2C00FA689A613B685A687B689A637B687A6932
:102A3C001A6200BF1C37BD4680BC7047002C014099
:102A4C0080B487B000AF786039607B681B6A7B61AB
:102A5C007B681B6A23F480727B681A627B685B68F4
:102A6C003B617B68DB69FB60FB6823F07003FB60F8
:102A7C00FB6823F00303FB603B681B68FA68134395
:102A8C00FB607B6923F400737B613B689B681B02D2
:102A9C007A6913437B617B681D4A93420DD17B6934
:102AAC0023F400637B613B68DB681B027A69134388
:102ABC007B617B6923F480637B617B68144A93425E
:102ACC0013D13B6923F480533B613B6923F40053DE
:102ADC003B613B685B691B013A6913433B613B6893
:102AEC009B691B013A6913433B617B683A695A60E5
:102AFC007B68FA68DA613B685A687B68DA637B68E2
:102B0C007A691A6200BF1C37BD4680BC704700BF93
:102B1C00002C014080B487B000AF786039607B68CE
:102B2C001B6A3B617B681B6A23F480527B681A62C8
:102B3C007B685B687B617B68DB69FB60FB6823F40B
:102B4C00E043FB60FB6823F44073FB603B681B684D
:102B5C001B02FA681343FB603B6923F400533B618F
:102B6C003B689B681B033A6913433B617B680F4AC4
:102B7C00934209D17B6923F480437B613B685B6999
:102B8C009B017A6913437B617B687A695A607B6825
:102B9C00FA68DA613B685A687B681A647B683A6940
:102BAC001A6200BF1C37BD4680BC7047002C014028
:102BBC0080B487B000AFF860B9607A60FB681B6ABC
:102BCC007B61FB681B6A23F00102FB681A62FB68DD
:102BDC009B693B613B6923F0F0033B617B681B0104
:102BEC003A6913433B617B6923F00A037B617A6981
:102BFC00BB6813437B61FB683A699A61FB687A692D
:102C0C001A6200BF1C37BD4680BC704780B487B0C9
:102C1C0000AFF860B9607A60FB681B6A7B61FB6887
:102C2C001B6A23F01002FB681A62FB689B693B610C
:102C3C003B6923F470433B617B681B033A69134384
:102C4C003B617B6923F0A0037B61BB681B017A6944
:102C5C0013437B61FB683A699A61FB687A691A6273
:102C6C0000BF1C37BD4680BC704780B485B000AF38
:102C7C00786039607B689B68FB60FB6823F07003AD
:102C8C00FB603A68FB68134343F00703FB607B6807
:102C9C00FA689A6000BF1437BD4680BC704780B498
:102CAC0087B000AFF860B9607A603B60FB689B68E6
:102CBC007B617B6923F47F437B613B681A027B68F1
:102CCC001A43BB6813437A6913437B61FB687A69C7
:102CDC009A6000BF1C37BD4680BC704780B487B07B
:102CEC0000AFF860B9607A60BB6803F01F03012283
:102CFC0002FA03F37B61FB681A6A7B69DB431A40B7
:102D0C00FB681A62FB681A6ABB6803F01F037968D8
:102D1C0001FA03F31A43FB681A6200BF1C37BD4665
:102D2C0080BC704780B485B000AF786039607B6838
:102D3C0093F83C30012B01D1022346E07B68012241
:102D4C0083F83C207B68022283F83D207B681B685B
:102D5C005B68FB607B681B689B68BB60FB6823F04F
:102D6C007003FB603B681B68FA681343FB607B686D
:102D7C001B68FA685A607B681B68164A93420ED02F
:102D8C007B681B68B3F1804F09D07B681B68124AC3
:102D9C00934204D07B681B68104A93420CD1BB68E9
:102DAC0023F08003BB603B685B68BA681343BB606D
:102DBC007B681B68BA689A607B68012283F83D20A7
:102DCC007B68002283F83C20002318461437BD464C
:102DDC0080BC7047002C01400004004000080040FB
:102DEC0080B485B000AF786039600023FB607B68ED
:102DFC0093F83C30012B01D102233DE07B6801228A
:102E0C0083F83C20FB6823F0FF023B68DB6813432C
:102E1C00FB60FB6823F440723B689B681343FB60C8
:102E2C00FB6823F480623B685B681343FB60FB68C0
:102E3C0023F400623B681B681343FB60FB6823F4BC
:102E4C0080523B681B691343FB60FB6823F4005200
:102E5C003B685B691343FB60FB6823F480423B686F
:102E6C00DB691343FB607B681B68FA685A647B68F8
:102E7C00002283F83C20002318461437BD4680BC42
:102E8C00704780B582B000AF78607B68002B01D1B1
:102E9C00012342E07B6893F84130DBB2002B06D172
:102EAC007B68002283F840207868FDF725FD7B685D
:102EBC00242283F841207B681B68DA687B681B68D6
:102ECC0022F40052DA60786800F0DCFC7B681B6846
:102EDC001A697B681B6822F490421A617B681B6834
:102EEC005A697B681B6822F02A025A617B681B684E
:102EFC00DA687B681B6842F40052DA607B68002257
:102F0C005A647B68202283F841207B68202283F856
:102F1C0042207B6800225A63002318460837BD46BE
:102F2C0080BD80B584B000AFF860B9601346FB80FB
:102F3C00FB6893F84230DBB2202B12D1BB68002B1C
:102F4C0002D0FB88002B01D101230BE0FB6800228F
:102F5C001A63FB881A46B968F86800F0BFFA034692
:102F6C0000E0022318461037BD4680BD80B5BAB0CC
:102F7C0000AF78607B681B681B68C7F8E4307B681F
:102F8C001B68DB68C7F8E0307B681B685B69C7F8B7
:102F9C00DC300023C7F8D8300023C7F8D430D7F87A
:102FAC00E43003F00F03C7F8D830D7F8D830002B33
:102FBC000FD1D7F8E43003F02003002B09D0D7F859
:102FCC00E03003F02003002B03D0786800F09CFB6A
:102FDC005BE2D7F8D830002B00F0DE80D7F8DC307D
:102FEC0003F00103002B06D1D7F8E03003F4907303
:102FFC00002B00F0D180D7F8E43003F00103002B54
:10300C000BD0D7F8E03003F48073002B05D07B682D
:10301C005B6C43F001027B685A64D7F8E43003F030
:10302C000403002B0BD0D7F8DC3003F00103002B8A
:10303C0005D07B685B6C43F002027B685A64D7F85E
:10304C00E43003F00203002B0BD0D7F8DC3003F094
:10305C000103002B05D07B685B6C43F004027B689A
:10306C005A64D7F8E43003F00803002B11D0D7F8DA
:10307C00E03003F02003002B05D1D7F8DC3003F04F
:10308C000103002B05D07B685B6C43F008027B6866
:10309C005A647B685B6C002B00F0F281D7F8E4304B
:1030AC0003F02003002B08D0D7F8E03003F0200306
:1030BC00002B02D0786800F027FB7B681B685B69EB
:1030CC0003F04003002B14BF01230023DBB2C7F82D
:1030DC00D4307B685B6C03F00803002B03D1D7F86A
:1030EC00D430002B4FD0786800F031FA7B681B6825
:1030FC005B6903F04003002B41D07B681B681433E1
:10310C00C7F89C30D7F89C3053E8003FC7F898308C
:10311C00D7F8983023F04003C7F8D0307B681B6891
:10312C001433D7F8D020C7F8A820C7F8A430D7F8A4
:10313C00A410D7F8A82041E80023C7F8A030D7F88E
:10314C00A030002BD9D17B68DB6B002B13D07B68B4
:10315C00DB6B7E4A5A637B68DB6B1846FEF742F9E1
:10316C000346002B16D07B68DB6B5B6B7A68D26BEB
:10317C00104698470EE0786800F09CF90AE07868F1
:10318C0000F098F906E0786800F094F97B6800226A
:10319C005A6475E100BF73E17B681B6B012B40F037
:1031AC004F81D7F8E43003F01003002B00F0488176
:1031BC00D7F8E03003F01003002B00F0418100231E
:1031CC00BB607B681B681B68BB607B681B685B68AB
:1031DC00BB60BB687B681B685B6903F04003002B1A
:1031EC0000F0B6807B68DB6B1B685B68A7F8BE30B1
:1031FC00B7F8BE30002B00F045817B689B8DB7F88B
:10320C00BE209A4280F03E817B68B7F8BE20DA85FA
:10321C007B68DB6B9B69202B00F088807B681B68CC
:10322C000C33C7F88830D7F8883053E8003FC7F81C
:10323C008430D7F8843023F48073C7F8B8307B68B7
:10324C001B680C33D7F8B820C7F89420C7F8903017
:10325C00D7F89010D7F8942041E80023C7F88C30A9
:10326C00D7F88C30002BD9D17B681B6814337B6763
:10327C007B6F53E8003F3B673B6F23F00103C7F8BC
:10328C00B4307B681B681433D7F8B420C7F880209F
:10329C00FB67F96FD7F8802041E80023BB67BB6F51
:1032AC00002BE1D17B681B6814333B663B6E53E803
:1032BC00003FFB65FB6D23F04003C7F8B0307B6823
:1032CC001B681433D7F8B020FA66BB66B96EFA6E79
:1032DC0041E800237B667B6E002BE3D17B682022C8
:1032EC0083F842207B6800221A637B681B680C33CE
:1032FC00FB64FB6C53E8003FBB64BB6C23F0100316
:10330C00C7F8AC307B681B680C33D7F8AC20BA65B7
:10331C007B65796DBA6D41E800233B653B6D002BF5
:10332C00E3D17B68DB6B1846FEF721F87B68022241
:10333C005A637B689A8D7B68DB8D9BB2D31A9BB2E8
:10334C001946786800F0BFF89CE000BF1F360008F3
:10335C007B689A8D7B68DB8D9BB2D31AA7F8CE3035
:10336C007B68DB8D9BB2002B00F08E80B7F8CE30E3
:10337C00002B00F089807B681B680C33BB63BB6B34
:10338C0053E8003F7B637B6B23F49073C7F8C83022
:10339C007B681B680C33D7F8C8207A643B64396CA3
:1033AC007A6C41E80023FB63FB6B002BE3D17B6859
:1033BC001B6814337B627B6A53E8003F3B623B6AB9
:1033CC0023F00103C7F8C4307B681B681433D7F8AB
:1033DC00C4203A63FB62F96A3A6B41E80023BB6292
:1033EC00BB6A002BE3D17B68202283F842207B68E8
:1033FC0000221A637B681B680C333B613B6953E802
:10340C00003FFB60FB6823F01003C7F8C0307B68FB
:10341C001B680C33D7F8C020FA61BB61B969FA6933
:10342C0041E800237B617B69002BE3D17B6802229E
:10343C005A63B7F8CE301946786800F044F823E0A8
:10344C00D7F8E43003F08003002B09D0D7F8E03034
:10345C0003F08003002B03D0786800F0EEF814E042
:10346C00D7F8E43003F04003002B0ED0D7F8E0304F
:10347C0003F04003002B08D0786800F02DF904E02D
:10348C0000BF02E000BF00E000BFE837BD4680BDD2
:10349C0080B483B000AF786000BF0C37BD4680BCF1
:1034AC00704780B483B000AF786000BF0C37BD4666
:1034BC0080BC704780B483B000AF786000BF0C371D
:1034CC00BD4680BC704780B483B000AF78600B46BB
:1034DC007B8000BF0C37BD4680BC704780B485B084
:1034EC0000AFF860B9601346FB80FB68BA689A625B
:1034FC00FB68FA889A85FB68FA88DA85FB680022F3
:10350C005A64FB68222283F84220FB681B69002B5B
:10351C0007D0FB681B68DA68FB681B6842F4807292
:10352C00DA60FB681B685A69FB681B6842F0010291
:10353C005A61FB681B68DA68FB681B6842F0200262
:10354C00DA60002318461437BD4680BC704780B43F
:10355C0095B000AF78607B681B680C337B637B6B2A
:10356C0053E8003F3B633B6B23F49073FB647B6835
:10357C001B680C33FA6C3A64FB63F96B3A6C41E8E8
:10358C000023BB63BB6B002BE5D17B681B6814333A
:10359C003B623B6A53E8003FFB61FB6923F001038C
:1035AC00BB647B681B681433BA6CFA62BB62B96A81
:1035BC00FA6A41E800237B627B6A002BE5D17B68C9
:1035CC001B6B012B19D17B681B680C33FB60FB68F0
:1035DC0053E8003FBB60BB6823F010037B647B683F
:1035EC001B680C337A6CBA617B617969BA6941E802
:1035FC0000233B613B69002BE5D17B68202283F8DB
:10360C0042207B6800221A6300BF5437BD4680BC41
:10361C00704780B584B000AF78607B685B6AFB60F4
:10362C00FB680022DA85FB680022DA84F868FFF771
:10363C0041FF00BF1037BD4680BD80B485B000AFE0
:10364C0078607B6893F84130DBB2212B3ED17B68EC
:10365C009B68B3F5805F14D17B681B69002B10D17C
:10366C007B681B6AFB60FB681B881A467B681B68BF
:10367C00C2F308025A607B681B6A9A1C7B681A6248
:10368C0008E07B681B6A591C7A6811621A787B689F
:10369C001B685A607B68DB8C9BB2013B9BB27A68DF
:1036AC001946D184002B0FD17B681B68DA687B68C4
:1036BC001B6822F08002DA607B681B68DA687B6822
:1036CC001B6842F04002DA60002300E00223184637
:1036DC001437BD4680BC704780B582B000AF7860AF
:1036EC007B681B68DA687B681B6822F04002DA6032
:1036FC007B68202283F841207868FFF7C9FE0023FD
:10370C0018460837BD4680BD80B58CB000AF7860D8
:10371C007B6893F84230DBB2222B40F0AE807B68A2
:10372C009B68B3F5805F17D17B681B69002B13D1A5
:10373C000023FB627B689B6ABB627B681B685B68CF
:10374C009BB2C3F308039AB2BB6A1A807B689B6A6C
:10375C009A1C7B689A6226E07B689B6AFB6200235A
:10376C00BB627B689B68B3F5805F07D07B689B6806
:10377C00002B0AD17B681B69002B06D17B681B6868
:10378C005B68DAB2FB6A1A7008E07B681B685B68DE
:10379C00DBB203F07F03DAB2FB6A1A707B689B6AB8
:1037AC005A1C7B689A627B68DB8D9BB2013B9BB297
:1037BC007A681946D185002B5DD17B681B68DA6865
:1037CC007B681B6822F02002DA607B681B68DA6871
:1037DC007B681B6822F48072DA607B681B685A690C
:1037EC007B681B6822F001025A617B68202283F8F7
:1037FC0042207B6800225A637B681B6B012B35D1FE
:10380C007B6800221A637B681B680C337B617B69C5
:10381C0053E8003F3B613B6923F010037B627B68FC
:10382C001B680C337A6A3A62FB61F9693A6A41E8BF
:10383C000023BB61BB69002BE5D17B681B681B684F
:10384C0003F01003102B0AD10023FB607B681B686C
:10385C001B68FB607B681B685B68FB60FB687B68B4
:10386C009B8D19467868FFF72EFE02E07868FFF70B
:10387C0018FE002302E0002300E002231846303734
:10388C00BD4680BD80B584B000AF78607B681B6896
:10389C001B6923F440517B68DA687B681B680A4318
:1038AC001A617B689A687B681B691A437B685B6941
:1038BC001343BB607B681B68DB6823F4B05323F0B5
:1038CC000C037A681268B9680B43D3607B681B6879
:1038DC005B6923F440717B689A697B681B680A43B7
:1038EC005A617B681B682C4A934203D1FEF76CFB30
:1038FC00F86002E0FEF754FBF860FA6813469B0090
:10390C0013449A001A447B685B689B00B2FBF3F388
:10391C00224AA2FB03235B091901FA6813469B0098
:10392C0013449A001A447B685B689B00B2FBF3F269
:10393C001A4BA3FB02035B09642000FB03F3D31AAD
:10394C001B013233154AA2FB03235B0903F0F0037E
:10395C001944FA6813469B0013449A001A447B6876
:10396C005B689B00B2FBF3F20C4BA3FB02035B09FD
:10397C00642000FB03F3D31A1B013233074AA2FB6A
:10398C0003235B0903F00F027B681B680A449A60EF
:10399C0000BF1037BD4680BD003801401F85EB517C
:1039AC0070B500260C4D0D4C641BA410A64209D119
:1039BC0000F022F800260A4D0A4C641BA410A64203
:1039CC0005D170BD55F8043B98470136EEE755F824
:1039DC00043B98470136F2E7483A0008483A000899
:1039EC00483A00084C3A000803460244934200D17E
:1039FC00704703F8011BF9E7F8B500BFF8BC08BC29
:103A0C009E467047F8B500BFF8BC08BC9E46704790
:103A1C000000000000000000010203040607080972
:103A2C000000000001020304020304050607080954
:0C3A3C000A0B0C0D0E0F10100102000010
:043A48003101000840
:043A4C000D01000860
:0C3A50000024F400100000000100000041
:0400000508000A31B4
:00000001FF
